{
  "contractName": "ContrattoB",
  "abi": [
    {
      "inputs": [
        {
          "internalType": "contract ContrattoA",
          "name": "_contrattoa",
          "type": "address"
        }
      ],
      "stateMutability": "nonpayable",
      "type": "constructor"
    },
    {
      "anonymous": false,
      "inputs": [
        {
          "indexed": true,
          "internalType": "address",
          "name": "_from",
          "type": "address"
        },
        {
          "indexed": true,
          "internalType": "address",
          "name": "_to",
          "type": "address"
        },
        {
          "indexed": false,
          "internalType": "uint256",
          "name": "_idEvent",
          "type": "uint256"
        },
        {
          "indexed": false,
          "internalType": "uint256",
          "name": "_amount",
          "type": "uint256"
        }
      ],
      "name": "transferAmount",
      "type": "event"
    },
    {
      "inputs": [],
      "name": "contrattoa",
      "outputs": [
        {
          "internalType": "contract ContrattoA",
          "name": "",
          "type": "address"
        }
      ],
      "stateMutability": "view",
      "type": "function",
      "constant": true
    },
    {
      "inputs": [
        {
          "internalType": "address",
          "name": "",
          "type": "address"
        }
      ],
      "name": "user",
      "outputs": [
        {
          "internalType": "uint256",
          "name": "",
          "type": "uint256"
        }
      ],
      "stateMutability": "view",
      "type": "function",
      "constant": true
    },
    {
      "stateMutability": "payable",
      "type": "receive",
      "payable": true
    },
    {
      "inputs": [
        {
          "internalType": "uint256",
          "name": "_idEvent",
          "type": "uint256"
        }
      ],
      "name": "checkIn",
      "outputs": [],
      "stateMutability": "payable",
      "type": "function",
      "payable": true
    },
    {
      "inputs": [
        {
          "internalType": "uint256",
          "name": "_idEvent",
          "type": "uint256"
        }
      ],
      "name": "transferBalance",
      "outputs": [],
      "stateMutability": "payable",
      "type": "function",
      "payable": true
    }
  ],
  "bytecode": "0x608060405230600160006101000a81548173ffffffffffffffffffffffffffffffffffffffff021916908373ffffffffffffffffffffffffffffffffffffffff16021790555034801561005157600080fd5b506040516109b43803806109b48339818101604052602081101561007457600080fd5b8101908080519060200190929190505050336000806101000a81548173ffffffffffffffffffffffffffffffffffffffff021916908373ffffffffffffffffffffffffffffffffffffffff16021790555080600360006101000a81548173ffffffffffffffffffffffffffffffffffffffff021916908373ffffffffffffffffffffffffffffffffffffffff160217905550600360009054906101000a900473ffffffffffffffffffffffffffffffffffffffff1673ffffffffffffffffffffffffffffffffffffffff1663d1d80fdf600160009054906101000a900473ffffffffffffffffffffffffffffffffffffffff166040518263ffffffff1660e01b8152600401808273ffffffffffffffffffffffffffffffffffffffff1673ffffffffffffffffffffffffffffffffffffffff168152602001915050600060405180830381600087803b1580156101c957600080fd5b505af11580156101dd573d6000803e3d6000fd5b50505050506107c3806101f16000396000f3fe6080604052600436106100435760003560e01c806381e7e20e1461004f5780638a60c4c1146100b4578063b2f0e656146100e2578063e95a644f146101395761004a565b3661004a57005b600080fd5b34801561005b57600080fd5b5061009e6004803603602081101561007257600080fd5b81019080803573ffffffffffffffffffffffffffffffffffffffff169060200190929190505050610167565b6040518082815260200191505060405180910390f35b6100e0600480360360208110156100ca57600080fd5b810190808035906020019092919050505061017f565b005b3480156100ee57600080fd5b506100f76103b5565b604051808273ffffffffffffffffffffffffffffffffffffffff1673ffffffffffffffffffffffffffffffffffffffff16815260200191505060405180910390f35b6101656004803603602081101561014f57600080fd5b81019080803590602001909291905050506103db565b005b60026020528060005260406000206000915090505481565b3373ffffffffffffffffffffffffffffffffffffffff166000809054906101000a900473ffffffffffffffffffffffffffffffffffffffff1673ffffffffffffffffffffffffffffffffffffffff16146101d857600080fd5b6000600360009054906101000a900473ffffffffffffffffffffffffffffffffffffffff1673ffffffffffffffffffffffffffffffffffffffff1663fdae3fdf836040518263ffffffff1660e01b81526004018082815260200191505060206040518083038186803b15801561024d57600080fd5b505afa158015610261573d6000803e3d6000fd5b505050506040513d602081101561027757600080fd5b810190808051906020019092919050505090506000600360009054906101000a900473ffffffffffffffffffffffffffffffffffffffff1673ffffffffffffffffffffffffffffffffffffffff16631e010439846040518263ffffffff1660e01b81526004018082815260200191505060206040518083038186803b1580156102ff57600080fd5b505afa158015610313573d6000803e3d6000fd5b505050506040513d602081101561032957600080fd5b8101908080519060200190929190505050905042821061034857600080fd5b6000809054906101000a900473ffffffffffffffffffffffffffffffffffffffff1673ffffffffffffffffffffffffffffffffffffffff166108fc829081150290604051600060405180830381858888f193505050501580156103af573d6000803e3d6000fd5b50505050565b600360009054906101000a900473ffffffffffffffffffffffffffffffffffffffff1681565b600360009054906101000a900473ffffffffffffffffffffffffffffffffffffffff1673ffffffffffffffffffffffffffffffffffffffff1663a8f1602c33836040518363ffffffff1660e01b8152600401808373ffffffffffffffffffffffffffffffffffffffff1673ffffffffffffffffffffffffffffffffffffffff1681526020018281526020019250505060006040518083038186803b15801561048257600080fd5b505afa158015610496573d6000803e3d6000fd5b505050506000600360009054906101000a900473ffffffffffffffffffffffffffffffffffffffff1673ffffffffffffffffffffffffffffffffffffffff1663fdae3fdf836040518263ffffffff1660e01b81526004018082815260200191505060206040518083038186803b15801561050f57600080fd5b505afa158015610523573d6000803e3d6000fd5b505050506040513d602081101561053957600080fd5b810190808051906020019092919050505090506000600360009054906101000a900473ffffffffffffffffffffffffffffffffffffffff1673ffffffffffffffffffffffffffffffffffffffff16639980ec86846040518263ffffffff1660e01b81526004018082815260200191505060206040518083038186803b1580156105c157600080fd5b505afa1580156105d5573d6000803e3d6000fd5b505050506040513d60208110156105eb57600080fd5b810190808051906020019092919050505090504282101561060b57600080fd5b3373ffffffffffffffffffffffffffffffffffffffff166108fc829081150290604051600060405180830381858888f19350505050158015610651573d6000803e3d6000fd5b50600360009054906101000a900473ffffffffffffffffffffffffffffffffffffffff1673ffffffffffffffffffffffffffffffffffffffff16630f4a3e168483336040518463ffffffff1660e01b8152600401808481526020018381526020018273ffffffffffffffffffffffffffffffffffffffff1673ffffffffffffffffffffffffffffffffffffffff1681526020019350505050600060405180830381600087803b15801561070357600080fd5b505af1158015610717573d6000803e3d6000fd5b505050503373ffffffffffffffffffffffffffffffffffffffff163073ffffffffffffffffffffffffffffffffffffffff167fa02d784955cac5ceeb18d282207f59dcdc6ff044c68f87c879c02e373129f77a8584604051808381526020018281526020019250505060405180910390a350505056fea26469706673582212205f1450f76c1d556ee356e3bc07f1e7e8b0520e5ab60a512e770d012130e69d6764736f6c63430006000033",
  "source": "pragma solidity ^0.6.0;\r\nimport \"./ContrattoA.sol\";\r\n\r\ncontract ContrattoB {\r\n  address payable owner;\r\n  address payable addrB = address(this);\r\n  mapping(address=> uint) public user;\r\n  ContrattoA public contrattoa;\r\n\r\n  constructor(ContrattoA _contrattoa)public{\r\n    owner = msg.sender;\r\n    contrattoa = _contrattoa;\r\n    // invia l'indirizzo del contratto\r\n    contrattoa.setAddr(addrB);\r\n  } \r\n    \r\n  modifier onlyOwner{\r\n    require(owner==msg.sender);      \r\n    _;\r\n  }\r\n     \r\n   event transferAmount(\r\n    address indexed _from,\r\n    address indexed _to,\r\n    uint _idEvent,\r\n    uint _amount\r\n   );\r\n\r\n//verifica se l'indirizzo dell'utente che sta eseguengo il check-in  è registrato nel contratto A in caso affermativo restituisce gli ether\r\n  function checkIn( uint _idEvent) external payable {   \r\n    // verifio se l'indirizzo dell'utente è registrato nel contratto A\r\n    contrattoa.isRegistered(msg.sender,_idEvent);\r\n       \r\n    //verifico se il tempo per il checkIn è scaduto\r\n    uint timeCheckIn= contrattoa.getTimeCheckIn(_idEvent);\r\n    uint amount =contrattoa.getAmount(_idEvent);\r\n    require(timeCheckIn >= now);\r\n    //affermativo invio ether all'utente\r\n    msg.sender.transfer(amount);\r\n    contrattoa.setBalance(_idEvent,amount,msg.sender);\r\n    emit transferAmount(address(this), msg.sender, _idEvent,amount);  \r\n  }\r\n //  alla scadenza del tempo max trasferisce al proprietario del contratto gli ether non restituiti \r\n  function transferBalance(uint _idEvent) external payable onlyOwner{\r\n    uint timeCheckIn= contrattoa.getTimeCheckIn(_idEvent);\r\n    uint balance=contrattoa.getBalance(_idEvent);\r\n    require(timeCheckIn < now);\r\n    owner.transfer(balance);\r\n  }\r\n  //fallback() external payable{}\r\n  receive () external payable{}  \r\n}\r\n\r\n",
  "sourcePath": "C:\\Users\\Simone\\Desktop\\EventManagement react\\src\\contracts\\ContrattoB.sol",
  "compiler": {
    "name": "solc",
    "version": "0.6.0+commit.26b70077.Emscripten.clang"
  },
  "schemaVersion": "3.1.0",
  "updatedAt": "2020-04-25T11:18:12.317Z",
  "networkType": "ethereum",
  "devdoc": {
    "methods": {}
  },
  "userdoc": {
    "methods": {}
  }
}