{
  "contractName": "ContrattoA",
  "abi": [
    {
      "inputs": [],
      "stateMutability": "nonpayable",
      "type": "constructor"
    },
    {
      "anonymous": false,
      "inputs": [
        {
          "indexed": true,
          "internalType": "address",
          "name": "_from",
          "type": "address"
        },
        {
          "indexed": true,
          "internalType": "address",
          "name": "_to",
          "type": "address"
        },
        {
          "indexed": false,
          "internalType": "uint256",
          "name": "_id",
          "type": "uint256"
        },
        {
          "indexed": false,
          "internalType": "uint256",
          "name": "_amount",
          "type": "uint256"
        }
      ],
      "name": "transferToB",
      "type": "event"
    },
    {
      "inputs": [],
      "name": "contrattob",
      "outputs": [
        {
          "internalType": "address payable",
          "name": "",
          "type": "address"
        }
      ],
      "stateMutability": "view",
      "type": "function",
      "constant": true
    },
    {
      "inputs": [],
      "name": "eventCount",
      "outputs": [
        {
          "internalType": "uint256",
          "name": "",
          "type": "uint256"
        }
      ],
      "stateMutability": "view",
      "type": "function",
      "constant": true
    },
    {
      "inputs": [
        {
          "internalType": "uint256",
          "name": "",
          "type": "uint256"
        }
      ],
      "name": "events",
      "outputs": [
        {
          "internalType": "uint256",
          "name": "_id",
          "type": "uint256"
        },
        {
          "internalType": "string",
          "name": "_nameEvent",
          "type": "string"
        },
        {
          "internalType": "uint256",
          "name": "_amount",
          "type": "uint256"
        },
        {
          "internalType": "uint256",
          "name": "_timeSecondCheckIn",
          "type": "uint256"
        },
        {
          "internalType": "uint256",
          "name": "balance",
          "type": "uint256"
        }
      ],
      "stateMutability": "view",
      "type": "function",
      "constant": true
    },
    {
      "inputs": [],
      "name": "name",
      "outputs": [
        {
          "internalType": "string",
          "name": "",
          "type": "string"
        }
      ],
      "stateMutability": "view",
      "type": "function",
      "constant": true
    },
    {
      "inputs": [
        {
          "internalType": "address",
          "name": "",
          "type": "address"
        },
        {
          "internalType": "uint256",
          "name": "",
          "type": "uint256"
        }
      ],
      "name": "users",
      "outputs": [
        {
          "internalType": "bool",
          "name": "_isregistered",
          "type": "bool"
        }
      ],
      "stateMutability": "view",
      "type": "function",
      "constant": true
    },
    {
      "stateMutability": "payable",
      "type": "receive",
      "payable": true
    },
    {
      "inputs": [
        {
          "internalType": "address payable",
          "name": "_addrContrattoB",
          "type": "address"
        }
      ],
      "name": "setAddr",
      "outputs": [],
      "stateMutability": "nonpayable",
      "type": "function"
    },
    {
      "inputs": [
        {
          "internalType": "string",
          "name": "_nameEvent",
          "type": "string"
        },
        {
          "internalType": "uint256",
          "name": "_amount",
          "type": "uint256"
        },
        {
          "internalType": "uint256",
          "name": "_timeSecondCheckIn",
          "type": "uint256"
        }
      ],
      "name": "createEvent",
      "outputs": [],
      "stateMutability": "nonpayable",
      "type": "function"
    },
    {
      "inputs": [
        {
          "internalType": "uint256",
          "name": "_idEvent",
          "type": "uint256"
        }
      ],
      "name": "register",
      "outputs": [],
      "stateMutability": "payable",
      "type": "function",
      "payable": true
    },
    {
      "inputs": [
        {
          "internalType": "address",
          "name": "sender",
          "type": "address"
        },
        {
          "internalType": "uint256",
          "name": "_idEvent",
          "type": "uint256"
        }
      ],
      "name": "isRegistered",
      "outputs": [],
      "stateMutability": "view",
      "type": "function",
      "constant": true
    },
    {
      "inputs": [
        {
          "internalType": "uint256",
          "name": "_idEvent",
          "type": "uint256"
        }
      ],
      "name": "getTimeCheckIn",
      "outputs": [
        {
          "internalType": "uint256",
          "name": "",
          "type": "uint256"
        }
      ],
      "stateMutability": "view",
      "type": "function",
      "constant": true
    },
    {
      "inputs": [
        {
          "internalType": "uint256",
          "name": "_idEvent",
          "type": "uint256"
        }
      ],
      "name": "getAmount",
      "outputs": [
        {
          "internalType": "uint256",
          "name": "",
          "type": "uint256"
        }
      ],
      "stateMutability": "view",
      "type": "function",
      "constant": true
    },
    {
      "inputs": [
        {
          "internalType": "uint256",
          "name": "_idEvent",
          "type": "uint256"
        }
      ],
      "name": "getBalance",
      "outputs": [
        {
          "internalType": "uint256",
          "name": "",
          "type": "uint256"
        }
      ],
      "stateMutability": "view",
      "type": "function",
      "constant": true
    },
    {
      "inputs": [
        {
          "internalType": "uint256",
          "name": "_idEvent",
          "type": "uint256"
        },
        {
          "internalType": "uint256",
          "name": "_amount",
          "type": "uint256"
        },
        {
          "internalType": "address",
          "name": "_user",
          "type": "address"
        }
      ],
      "name": "setBalance",
      "outputs": [],
      "stateMutability": "nonpayable",
      "type": "function"
    }
  ],
  "bytecode": "0x6080604052604051806060016040528060248152602001610ee0602491396000908051906020019061003292919061008b565b50600060035534801561004457600080fd5b5033600160006101000a81548173ffffffffffffffffffffffffffffffffffffffff021916908373ffffffffffffffffffffffffffffffffffffffff160217905550610130565b828054600181600116156101000203166002900490600052602060002090601f016020900481019282601f106100cc57805160ff19168380011785556100fa565b828001600101855582156100fa579182015b828111156100f95782518255916020019190600101906100de565b5b509050610107919061010b565b5090565b61012d91905b80821115610129576000816000905550600101610111565b5090565b90565b610da18061013f6000396000f3fe6080604052600436106100c65760003560e01c80639980ec861161007f578063c762850411610059578063c76285041461050a578063d1d80fdf14610561578063f207564e146105b2578063fdae3fdf146105e0576100cd565b80639980ec86146103845780639e9580f6146103d3578063a8f1602c146104af576100cd565b806306fdde03146100d25780630b791430146101625780630f4a3e16146102325780631e0104391461029757806354a02f9e146102e657806371be2e4a14610359576100cd565b366100cd57005b600080fd5b3480156100de57600080fd5b506100e761062f565b6040518080602001828103825283818151815260200191508051906020019080838360005b8381101561012757808201518184015260208101905061010c565b50505050905090810190601f1680156101545780820380516001836020036101000a031916815260200191505b509250505060405180910390f35b34801561016e57600080fd5b5061019b6004803603602081101561018557600080fd5b81019080803590602001909291905050506106cd565b6040518086815260200180602001858152602001848152602001838152602001828103825286818151815260200191508051906020019080838360005b838110156101f35780820151818401526020810190506101d8565b50505050905090810190601f1680156102205780820380516001836020036101000a031916815260200191505b50965050505050505060405180910390f35b34801561023e57600080fd5b506102956004803603606081101561025557600080fd5b810190808035906020019092919080359060200190929190803573ffffffffffffffffffffffffffffffffffffffff16906020019092919050505061079b565b005b3480156102a357600080fd5b506102d0600480360360208110156102ba57600080fd5b8101908080359060200190929190505050610830565b6040518082815260200191505060405180910390f35b3480156102f257600080fd5b5061033f6004803603604081101561030957600080fd5b81019080803573ffffffffffffffffffffffffffffffffffffffff16906020019092919080359060200190929190505050610850565b604051808215151515815260200191505060405180910390f35b34801561036557600080fd5b5061036e610888565b6040518082815260200191505060405180910390f35b34801561039057600080fd5b506103bd600480360360208110156103a757600080fd5b810190808035906020019092919050505061088e565b6040518082815260200191505060405180910390f35b3480156103df57600080fd5b506104ad600480360360608110156103f657600080fd5b810190808035906020019064010000000081111561041357600080fd5b82018360208201111561042557600080fd5b8035906020019184600183028401116401000000008311171561044757600080fd5b91908080601f016020809104026020016040519081016040528093929190818152602001838380828437600081840152601f19601f82011690508083019250505050505050919291929080359060200190929190803590602001909291905050506108ae565b005b3480156104bb57600080fd5b50610508600480360360408110156104d257600080fd5b81019080803573ffffffffffffffffffffffffffffffffffffffff169060200190929190803590602001909291905050506109a8565b005b34801561051657600080fd5b5061051f610a16565b604051808273ffffffffffffffffffffffffffffffffffffffff1673ffffffffffffffffffffffffffffffffffffffff16815260200191505060405180910390f35b34801561056d57600080fd5b506105b06004803603602081101561058457600080fd5b81019080803573ffffffffffffffffffffffffffffffffffffffff169060200190929190505050610a3c565b005b6105de600480360360208110156105c857600080fd5b8101908080359060200190929190505050610a80565b005b3480156105ec57600080fd5b506106196004803603602081101561060357600080fd5b8101908080359060200190929190505050610c81565b6040518082815260200191505060405180910390f35b60008054600181600116156101000203166002900480601f0160208091040260200160405190810160405280929190818152602001828054600181600116156101000203166002900480156106c55780601f1061069a576101008083540402835291602001916106c5565b820191906000526020600020905b8154815290600101906020018083116106a857829003601f168201915b505050505081565b6004602052806000526040600020600091509050806000015490806001018054600181600116156101000203166002900480601f01602080910402602001604051908101604052809291908181526020018280546001816001161561010002031660029004801561077f5780601f106107545761010080835404028352916020019161077f565b820191906000526020600020905b81548152906001019060200180831161076257829003601f168201915b5050505050908060020154908060030154908060040154905085565b8160046000858152602001908152602001600020600401600082825403925050819055506000600560008373ffffffffffffffffffffffffffffffffffffffff1673ffffffffffffffffffffffffffffffffffffffff168152602001908152602001600020600085815260200190815260200160002060000160006101000a81548160ff021916908315150217905550505050565b600060046000838152602001908152602001600020600401549050919050565b6005602052816000526040600020602052806000526040600020600091509150508060000160009054906101000a900460ff16905081565b60035481565b600060046000838152602001908152602001600020600201549050919050565b600160009054906101000a900473ffffffffffffffffffffffffffffffffffffffff1673ffffffffffffffffffffffffffffffffffffffff163373ffffffffffffffffffffffffffffffffffffffff161461090857600080fd5b6003600081548092919060010191905055506040518060a00160405280600354815260200184815260200183815260200182420181526020016000815250600460006003548152602001908152602001600020600082015181600001556020820151816001019080519060200190610981929190610cc6565b50604082015181600201556060820151816003015560808201518160040155905050505050565b600560008373ffffffffffffffffffffffffffffffffffffffff1673ffffffffffffffffffffffffffffffffffffffff168152602001908152602001600020600082815260200190815260200160002060000160009054906101000a900460ff16610a1257600080fd5b5050565b600260009054906101000a900473ffffffffffffffffffffffffffffffffffffffff1681565b80600260006101000a81548173ffffffffffffffffffffffffffffffffffffffff021916908373ffffffffffffffffffffffffffffffffffffffff16021790555050565b610a8981610ca1565b600560003373ffffffffffffffffffffffffffffffffffffffff1673ffffffffffffffffffffffffffffffffffffffff168152602001908152602001600020600082815260200190815260200160002060000160009054906101000a900460ff1615610af457600080fd5b6001600560003373ffffffffffffffffffffffffffffffffffffffff1673ffffffffffffffffffffffffffffffffffffffff168152602001908152602001600020600083815260200190815260200160002060000160006101000a81548160ff021916908315150217905550346004600083815260200190815260200160002060040160008282540192505081905550600260009054906101000a900473ffffffffffffffffffffffffffffffffffffffff1673ffffffffffffffffffffffffffffffffffffffff166108fc349081150290604051600060405180830381858888f19350505050158015610bec573d6000803e3d6000fd5b50600260009054906101000a900473ffffffffffffffffffffffffffffffffffffffff1673ffffffffffffffffffffffffffffffffffffffff163373ffffffffffffffffffffffffffffffffffffffff167fe2fb4625f19aee29d3ea41f0e217391109d8cb641ebf0ca4100931c87945819c60035434604051808381526020018281526020019250505060405180910390a350565b600060046000838152602001908152602001600020600301549050919050565b60046000828152602001908152602001600020600201543414610cc357600080fd5b50565b828054600181600116156101000203166002900490600052602060002090601f016020900481019282601f10610d0757805160ff1916838001178555610d35565b82800160010185558215610d35579182015b82811115610d34578251825591602001919060010190610d19565b5b509050610d429190610d46565b5090565b610d6891905b80821115610d64576000816000905550600101610d4c565b5090565b9056fea26469706673582212204600fb3f0f097fd64ebbc93db73ba2d523b9039af30b327de5ff3bfdd302f0c664736f6c63430006000033436f6e747261637420412c20726567697374657220757365727320746f206576656e7473",
  "source": "pragma solidity ^0.6.0;\r\n\r\ncontract ContrattoA {\r\n  string public name = \"Contract A, register users to events\";\r\n  address owner;\r\n \r\n  address payable public contrattob;\r\n\r\n  // struttura dell'evento \r\n  struct Event{\r\n    uint _id;\r\n    string _nameEvent;\r\n    uint _amount;\r\n    uint _timeSecondCheckIn;\r\n    uint balance; // bilancio degli utenti registrati all'evento\r\n  }\r\n  \r\n  struct User{\r\n    bool _isregistered;\r\n  }\r\n  \r\n  uint public eventCount = 0;\r\n  mapping (uint => Event) public events;\r\n \r\n  // l'utente si può registrare a più eventi. Ricerca tramite l'indirizzo utente e idEvento\r\n  mapping (address => mapping(uint => User)) public users;\r\n  \r\n  // evento per il trasferimento degli ether al contrattob\r\n  event transferToB(\r\n    address indexed _from,\r\n    address indexed _to,\r\n    uint _id,\r\n    uint _amount\r\n  );\r\n  \r\n constructor()public{\r\n    owner=msg.sender; //inizializzo il propritario del contratto\r\n }\r\n \r\n // imposta l'indirizzo del contatto B\r\n function setAddr(address  payable _addrContrattoB) public{\r\n    contrattob = _addrContrattoB;\r\n  }\r\n \r\n // con questo modificatore di funzione solo il proprietario può chiamare una funzione\r\n modifier onlyOwner(){\r\n     require(msg.sender== owner);\r\n     _;\r\n }\r\n\r\n  // il proprietario del contratto è l'unico che può creare l'evento\r\n function createEvent(string memory _nameEvent, uint _amount ,uint _timeSecondCheckIn)public onlyOwner {\r\n    eventCount ++;\r\n    events[eventCount]=Event(eventCount, _nameEvent, _amount, now + _timeSecondCheckIn, 0);\r\n  }\r\n   \r\n  // verifica che la quantità di ether inviata è corretta \r\n  function checkAmount(uint _idEvent)internal {\r\n    require(msg.value == events[_idEvent]._amount);\r\n  }\r\n  \r\n   // verifica che l'indirizzo dell'utente non sia registrato in caso affermativo lo registra e invia gli ether al contratto B\r\n  function register(uint _idEvent)public payable {\r\n    checkAmount(_idEvent);\r\n    require(!users[msg.sender][_idEvent]._isregistered); //verifica che l'utente non sia registrato\r\n    users[msg.sender][_idEvent]._isregistered=true;\r\n    events[_idEvent].balance += msg.value; // aggiorna il bilancio\r\n    contrattob.transfer(msg.value);\r\n    emit transferToB(msg.sender, contrattob, eventCount, msg.value); // emette l'evento del trasferimento di ether al contratto\r\n  }\r\n  \r\n  function isRegistered(address sender, uint _idEvent)external view {\r\n    require(users[sender][_idEvent]._isregistered );\r\n  }\r\n   \r\n  function getTimeCheckIn(uint _idEvent) external view returns(uint){\r\n    return events[_idEvent]._timeSecondCheckIn;\r\n  }\r\n  \r\n  function getAmount(uint _idEvent)external view returns(uint){\r\n    return events[_idEvent]._amount;\r\n  }\r\n    \r\n  function getBalance(uint _idEvent)external view returns(uint){\r\n    return events[_idEvent].balance;\r\n  }\r\n    \r\n  function setBalance(uint _idEvent, uint _amount, address _user)external{\r\n    events[_idEvent].balance -= _amount;\r\n    users[_user][_idEvent]._isregistered=false;\r\n  }\r\n    \r\n  \r\n  receive ()external payable{}\r\n}\r\n",
  "sourcePath": "C:\\Users\\Simone\\Desktop\\EventManagement react\\src\\contracts\\ContrattoA.sol",
  "compiler": {
    "name": "solc",
    "version": "0.6.0+commit.26b70077.Emscripten.clang"
  },
  "schemaVersion": "3.1.0",
  "updatedAt": "2020-04-25T11:18:12.289Z",
  "networkType": "ethereum",
  "devdoc": {
    "methods": {}
  },
  "userdoc": {
    "methods": {}
  }
}